S01100004D7950726F6A6563742E7372656376
S113000019C033C032C04EC030C032C02EC02DC063
S11300102CC02BC02AC029C028C027C026C025C098
S113002024C023C022C021C020C01FC01EC01DC0C8
S11300301CC01BC011241FBECFEFCDBFDFE3DEBF4A
S11300401EE3A0E0BEE3E2E8F4E002C005900D92F6
S1130050AC31B107D9F72EE3ACE1BEE301C01D9288
S1130060AE31B207E1F74CD10AC2CACFB3D1089579
S11300701F920F920FB60F9211248F93EF93FF9359
S1130080F89481E080931D3EE0E4F4E08185816092
S113009081877894FF91EF918F910F900FBE0F900D
S11300A01F9018951F920F920FB60F9211248F93E1
S11300B0EF93FF93F89481E080931C3EE0E0F4E03A
S11300C08185846081877894FF91EF918F910F905F
S11300D00FBE0F901F901895FC019C012B5F3F4FA2
S11300E090E08191980FE217F307D9F781E09F3FE1
S11300F009F080E008956623C9F0A0E0B4E0149606
S11301002C911497E82FF0E0EE0FFF1FEE0FFF1F66
S1130110E050F24C81E090E0028002C0880F991F09
S11301200A94E2F7822B14968C930895A0E0B4E02D
S113013014962C911497E82FF0E0EE0FFF1FEE0FAA
S1130140FF1FE050F24C81E090E0028002C0880F73
S1130150991F0A94E2F78095822314968C9308954C
S11301609DEB980F21E0923008F020E091E0823579
S113017009F090E0822F892B0895FC019C012C5FEB
S11301803F4F80E09191890FE217F307D9F78095EB
S11301900895CF93DF93EC0184E4888369835A83C1
S11301A04B83CE01EADF8C8365E070E0CE014BD156
S11301B0DF91CF9108951F93CF93DF93EC011981C1
S11301C06B81812F98DF4B8150E0612FCE01E1DFFD
S11301D0DF91CF911F91089524E0829FC0011124E3
S11301E0FC01E050F24C92818381811123C0818112
S11301F081110FC02091080441E050E0BA0102C00F
S1130200660F771F9A95E2F7CB0130E082239323A0
S11302100895823001F52091480441E050E0BA018C
S113022002C0660F771F9A95E2F7CB0130E0822374
S113023093230895813091F42091040441E050E027
S1130240BA0102C0660F771F9A95E2F7CB0130E03E
S11302508223932308958FEF90E0089580E090E047
S11302600895CF93DF93EC018981B6DFAC016981F6
S1130270CE018FDFDF91CF910895CF93DF93EC010F
S11302802BDF882351F08881833419F4CE0193DF66
S113029004C0823511F4CE01E4DFDF91CF910895DB
S11302A0EF92FF921F93CF93DF93EC017B01B5D0C4
S11302B0811117C01FC0B7D0182F888181110AC0BF
S11302C0812F4EDF882369F0F701108388818F5FC7
S11302D0888307C0F701E80FF11D108388818F5FC1
S11302E088839BD08111E7CF8881853018F0C701BE
S11302F0C4DF1882DF91CF911F91FF90EF90089592
S1130300CF93DF93CDB7DEB72697CDBFDEBFAEDE8A
S113031078D01E82E0E0F4E08081806E808380816A
S11303208B7F8083A0E4B4E08C91847F8C9350967F
S11303308C915097816050968C9382898160828BD6
S1130340789413E006E0BE016F5F7F4FCE010696FE
S1130350A7DF80911C3E882331F01A83CE010196D9
S113036080DF10921C3E80911D3E882361F30A8336
S1130370CE01019676DF10921D3EE5CF80E0089510
S113038080E0089580E00895E0E1F4E080818860F1
S11303908193E83184E0F807C9F7E0E3F4E0808171
S11303A088608193E83384E0F807C9F7E0E5F4E076
S11303B0808188608193E83584E0F807C9F708955F
S11303C02398E3E3F4E08081877F8083229A2A984C
S11303D00AD00895D9DFD4DFF3DFD4DF02D0CEDF33
S11303E0089580E00895E0E0F8E08DE695E08087E8
S11303F09187158280EC868383E08783138680E06F
S11304000895E0E0F8E08681806C86830895809109
S1130410040885FB882780F9089580910408881FC3
S11304208827881F0895E0E0F8E084818823ECF7AA
S1130430809100080895E0E0F8E0948195FFFDCFF5
S1130440809302080895EF92FF920F931F93CF9326
S11304507C018B01C0E0DBDF8823E9F3F701EC0FBB
S1130460F11D8081E8DFCF5F8C2F90E0801791072A
S113047091F7CF911F910F91FF90EF900895F89409
S1050480FFCFA8
S11304820000060101000701020005010300020049
S10F049204020300050201000602000041
S9030000FC
